:200000000EC028C027C026C0BBC424C023C022C021C020C01FC01EC01DC01CC01BC01124EE
:200020001FBECFE5D2E0DEBFCDBF10E0A0E6B0E0E0EAFBE002C005900D92AC38B107D9F747
:2000400011E0ACE8B0E001C01D92A031B107E1F74FD4A4C5D5CFA0E0B0E0E0E3F0E06FC5B3
:20006000EC01A880B980CA80DB80A114B104C104D10441F484E2A82E89EDB82E8BE5C82E56
:2000800087E0D82EC601B5012DE133EF41E050E011D527EA31E440E050E0F3D47B018C01C9
:2000A000C601B5012DE133EF41E050E003D5CA01B9012CEE34EF4FEF5FEFE3D46E0D7F1D4E
:2000C000801F911F97FF04C06150704080409048688379838A839B839B01AC015F77B90193
:2000E000CA01CDB7DEB7EAE046C5B5DF089580E690E0B1DF08956093600070936100809349
:2001000062009093630008956F927F928F929F92BF92CF92DF92EF92FF920F931F93CF930B
:20012000DF9380910401DD24D394CC245FEF24E6622E712C16C14530B8F45430A8F4E42F2F
:20014000FF27E7FDF095EE0FFF1FEE0FFF1FEE0DFF1DEE0FFF1FEE0FFF1FE457FF4F208163
:20016000222319F021E001C020E0543098F4EB2DFF27E7FDF095EE0FFF1FEE0FFF1FEE0D87
:20018000FF1DEE0FFF1FEE0FFF1FE457FF4F808181112F5F3530A9F0543098F4E32FFF271D
:2001A000E7FDF095EE0FFF1FEE0FFF1FEE0DFF1DEE0FFF1FEE0FFF1FE457FF4F8081811137
:2001C0002F5F453098F4E42FFF27E7FDF095EE0FFF1FEE0FFF1FE80DF91DEE0FFF1FEE0F95
:2001E000FF1FE457FF4F808181112F5F353099F0E32FFF27E7FDF095EE0FFF1FEE0FFF1F72
:20020000E80DF91DEE0FFF1FEE0FFF1FE457FF4F808181112F5F4530C0F484E0D81659F12E
:20022000E42FFF27E7FDF095EE0FFF1FEE0FFF1FE00FF11FEE0FFF1FEE0FFF1FE457FF4F28
:200240008081882329F02F5F03C094E0D91699F0EB2DFF27E7FDF095EE0FFF1FEE0FFF1FBF
:20026000E00FF11FEE0FFF1FEE0FFF1FE457FF4F808181112F5F3530B1F084E0D81699F0BE
:20028000E32FFF27E7FDF095EE0FFF1FEE0FFF1FE00FF11FEE0FFF1FEE0FFF1FE457FF4FC9
:2002A000808181112F5FCB2DD0E0DE01AA0FBB1FAA0FBB1FA60FB71FFD01EE0FFF1FEE0FCF
:2002C000FF1FE457FF4F80819181892B71F1223040F4AA0FBB1FAA0FBB1FA257BF4F1D92EC
:2002E0001C92822F8250823078F4FE01EE0FFF1FEE0FFF1FE60FF71FEE0FFF1FEE0FFF1F39
:20030000E257FF4F71826082243008F1CC0FDD1FCC0FDD1FC60FD71FCC0FDD1FCC0FDD1F0D
:20032000C257DF4F1982188212C0FD01EE0FFF1F233039F4EE0FFF1FE257FF4F718260825F
:2003400006C0EE0FFF1FE257FF4F118210823F5FB3944F5F363009F0EECED394C3945F5FE6
:2003600085E093E09C1590F031E0BB244FEFE52EFF24E7FCF0948C2C992487FC90940D2D53
:20038000112707FD10956C2D70E0E4CF80930401C0920501DF91CF911F910F91FF90EF9042
:2003A000DF90CF90BF909F908F907F906F900895CF93DF938091040130E039C0C32FD0E092
:2003C000CE0165E070E04BD3782F40E050E029C0E82FF0E0EE0FFF1FEE0FFF1FEC0FFD1F87
:2003E000EE0FFF1FEE0FFF1FE457FF4F6081870F20E090E0DC01AC59BF4FFC01E858FF4FDC
:2004000005C08C9187BB808188BB2C5F2617C8F3E62F03C017BA18BAEC5FE436D8F34F5F98
:200420005F4F842F4530510599F63F5F85E0343028F2809304013093050117BA18BADF918C
:20044000CF9108951F93CF93DF938091040110E070E041C0462F50E0FA01EE0FFF1FEE0F0A
:20046000FF1FEC0FFD1FEE0FFF1FEE0FFF1FDF01A457BF4F2D913C911197E257FF4F80816D
:2004800091812817390728F42F5F3F4F2D933C931F5FFA01EE0FFF1FEE0FFF1FEC0FFD1F3E
:2004A000EE0FFF1FEE0FFF1FDF01A457BF4F2D913C911197E257FF4F80819181821793071D
:2004C00028F4215030402D933C931F5F6F5F653009F67F5F85E0743020F460E0C72FD0E0CF
:2004E000F6CF809304017093050162DF61DF60DF112309F0AACFDF91CF911F910895EF9212
:20050000FF920F931F93CF93DF9368E270E080E090E020E530E040E050E00ED210920501CB
:20052000E62EFF2400E010E0C4E6D0E03EC01092040132C064E670E080E090E0DDD12091FA
:200540000501E0910401E616F7060807190784F4F0E0EE0FFF1FEE0FFF1FE20FF11DEE0F7D
:20056000FF1FEE0FFF1FE257FF4FD183C0830FC0F0E0EE0FFF1FEE0FFF1FE20FF11DEE0F53
:20058000FF1FEE0FFF1FE257FF4F11821082809104018F5F8093040180910401853050F24D
:2005A000809105018F5F8093050180910501843008F4BDCFDF91CF911F910F91FF90EF909C
:2005C0000895FF920F931F93CF93DF933091040120E08FEF9FEF24C0A22FB0E0FD01EE0FB3
:2005E000FF1FE452FF4F91838083FD01EE0FFF1FEC51FF4F91838083FD01EE0FFF1FE45139
:20060000FF4F91838083AA0FBB1FFD01EC50FF4F91838083A450BF4F8D939C932F5F35E04F
:200620002430D0F220E084E690E019C0E22FF0E0EE0FFF1FEE0FFF1FDF01A257BF4F8D93D3
:200640009C93E457FF4F938B828B93A382A393AB82ABEE5BFF4F918380832F5F35E024304C
:2006600028F33093040120930501ECDEC0E0D0E09FDE219683E0C83ED807D1F740DFE2DEA1
:2006800000E010E003C000E010E006C00115110519F0C0E0D0E05FC01092050180910401CF
:2006A00040E051C0242F30E0D901AA0FBB1FA452BF4FF901EE0FFF1FEE0FFF1FE457FF4F7C
:2006C000808191818D939C93D9011496AA0FBB1FFD01EE0FFF1FE457FF4F80819181A452F6
:2006E000BF4F8D939C93D9011896AA0FBB1FFD01EE0FFF1FE457FF4F80819181A452BF4FC9
:200700008D939C93D9011C96AA0FBB1FFD01EE0FFF1FE457FF4F80819181A452BF4F8D9392
:200720009C93205F3F4F220F331FF901EE0FFF1FE457FF4F8081918124523F4FF901918337
:2007400080834F5F85E0443008F4ACCF80930401409305019ECF2CDE2196F3E0C83EDF07BA
:20076000D1F7D2DC109205018091040150E01FC0E42FF0E0F42EF394EE0FFF1FEE0FFF1F74
:20078000E60FF71FEE0FFF1FEE0FFF1FDF01A257BF4FE457FF4F208131818D919C912817CB
:2007A000390759F44F2D453019F75F5F85E0543050F440E0652F70E0F6CF4093040110927D
:2007C000050150E02BC08093040150930501C0E0D0E0EEDD219685E0CC3DD807D1F73CC014
:2007E000E42FF0E0F42EF394EE0FFF1FEE0FFF1FE60FF71FEE0FFF1FDF01AA0FBB1FA257A5
:20080000BF4FE452FF4F2D913C91808191812817390751F44F2D453019F75F5F543080F42D
:2008200040E0652F70E0F7CF409304015093050109DE0F5F1F4F0431110508F427CF23CF3B
:200840004093040150930501C0E0D0E0B1DD2196E5E0CC3DDE07D1F7DF91CF911F910F91A7
:20086000FF900895AEDE08950F93DF93CF9300D0CDB7DEB780E090E000E20DC09C01220F77
:20088000331F3A83298381E00FD081709070E981FA818E2B9F2B015089F76BD00F900F90BA
:2008A000CF91DF910F910895482F863008F046508091060127B1382F3295330F330F307C22
:2008C0002F72322B90E08470907096958795969587958295807F382B37B987B1807F842BD9
:2008E00087B9369A3699FECF24B135B1C901089590D0BADFB7DFFECFEF92FF920F931F9368
:200900007B018C01611571058105910529F420E030E040E050E009C0EADBA8019701CAD0E0
:20092000AC01CB01DA019C01AD01B901CA011F910F91FF90EF900895EF92FF920F931F9332
:200940007B018C0162177307840795075CF4261B370B480B590BCA01B901CEDFE60EF71EAF
:20096000081F191FB701C8011F910F91FF90EF900895009721F0BC0180E090E0BCDB089533
:200980001F920F920FB60F9211242F933F938F939F93AF93BF9380910B0190910C01A09172
:2009A0000D01B0910E0130910F01232F2D5F2D3728F02D570296A11DB11D03C00196A11DEE
:2009C000B11D20930F0180930B0190930C01A0930D01B0930E018091070190910801A09130
:2009E0000901B0910A010196A11DB11D8093070190930801A0930901B0930A01BF91AF911C
:200A00009F918F913F912F910F900FBE0F901F901895789480B7806880BF80B7806480BFCB
:200A20008CB580648CBD8FEF8DBD80B7807F876080BF89B7846089BF83B7887F83BF8AB5F6
:200A40008C7F81608ABD83B7877F83BF83B7887F836083BF86B1876086B9379A0895552734
:200A6000002480FF02C0060E571F660F771F6115710521F096958795009799F7952F802DA0
:200A80000895FF27EE27BB27AA2760FF04C0A20FB31FE41FF51F220F331F441F551F969589
:200AA00087957795679589F70097760771F7CF01BD01089597FB092E05260ED057FD04D0F1
:200AC00014D00AD0001C38F450954095309521953F4F4F4F5F4F0895F6F790958095709538
:200AE00061957F4F8F4F9F4F0895A1E21A2EAA1BBB1BFD010DC0AA1FBB1FEE1FFF1FA21711
:200B0000B307E407F50720F0A21BB30BE40BF50B661F771F881F991F1A9469F76095709538
:200B2000809590959B01AC01BD01CF0108952F923F924F925F926F927F928F929F92AF92FE
:200B4000BF92CF92DF92EF92FF920F931F93CF93DF93CDB7DEB7CA1BDB0B0FB6F894DEBF66
:200B60000FBECDBF09942A88398848885F846E847D848C849B84AA84B984C884DF80EE80B3
:200B8000FD800C811B81AA81B981CE0FD11D0FB6F894DEBF0FBECDBFED010895F894FFCF53
:200BA000010000000C140506060A1203030509111112141818090A0C081001020408100104
:0C0BC000020408100102040810010204E5
:00000001FF
